{
  "contractName": "Transfer",
  "abi": [
    {
      "inputs": [],
      "stateMutability": "nonpayable",
      "type": "constructor"
    },
    {
      "anonymous": false,
      "inputs": [
        {
          "indexed": true,
          "internalType": "address",
          "name": "from",
          "type": "address"
        },
        {
          "indexed": true,
          "internalType": "address",
          "name": "to",
          "type": "address"
        },
        {
          "indexed": false,
          "internalType": "uint256",
          "name": "amount",
          "type": "uint256"
        }
      ],
      "name": "FundsTransferred",
      "type": "event"
    },
    {
      "stateMutability": "payable",
      "type": "fallback",
      "payable": true
    },
    {
      "inputs": [],
      "name": "owner",
      "outputs": [
        {
          "internalType": "address payable",
          "name": "",
          "type": "address"
        }
      ],
      "stateMutability": "view",
      "type": "function",
      "constant": true
    },
    {
      "stateMutability": "payable",
      "type": "receive",
      "payable": true
    },
    {
      "inputs": [],
      "name": "sendToOwner",
      "outputs": [],
      "stateMutability": "payable",
      "type": "function",
      "payable": true
    }
  ],
  "bytecode": "0x608060405234801561001057600080fd5b5061032c806100206000396000f3fe60806040526004361061002d5760003560e01c80636620a935146101785780638da5cb5b1461018257610130565b366101305760405160009073814eabe6c22a4ba2b7658702cd9cb56155dbd34f9034908381818185875af1925050503d8060008114610088576040519150601f19603f3d011682016040523d82523d6000602084013e61008d565b606091505b50509050806100e35760405162461bcd60e51b815260206004820152601a60248201527f44697265637420455448207472616e73666572206661696c656400000000000060448201526064015b60405180910390fd5b60405134815273814eabe6c22a4ba2b7658702cd9cb56155dbd34f9033907f78e6250172d8e0a57d8d41f480f13581571a2d27bb2a93f5f7bd2511f5c22a6c9060200160405180910390a3005b60405162461bcd60e51b815260206004820152601760248201527f46756e6374696f6e20646f6573206e6f7420657869737400000000000000000060448201526064016100da565b6101806101c6565b005b34801561018e57600080fd5b506101aa73814eabe6c22a4ba2b7658702cd9cb56155dbd34f81565b6040516001600160a01b03909116815260200160405180910390f35b600034116102065760405162461bcd60e51b815260206004820152600d60248201526c0a6cadcc840e6dedaca408aa89609b1b60448201526064016100da565b60405160009073814eabe6c22a4ba2b7658702cd9cb56155dbd34f9034908381818185875af1925050503d806000811461025c576040519150601f19603f3d011682016040523d82523d6000602084013e610261565b606091505b50509050806102a85760405162461bcd60e51b815260206004820152601360248201527211551208151c985b9cd9995c8819985a5b1959606a1b60448201526064016100da565b60405134815273814eabe6c22a4ba2b7658702cd9cb56155dbd34f9033907f78e6250172d8e0a57d8d41f480f13581571a2d27bb2a93f5f7bd2511f5c22a6c9060200160405180910390a35056fea264697066735822122047cde748da029c2d0e90af7dc4827818a4f1fc4da43485e0e350ef5587cadcb664736f6c63430008180033",
  "immutableReferences": {},
  "source": "// Level 0 its a simple Transfer contract, witch is only give you ability to send ETH to who deploy this contract.\r\n// pragma solidity ^0.8.24;\r\n\r\n// contract Transfer {\r\n\r\n//     event Transfer( address indexed from, address indexed to ,uint indexed amount );\r\n\r\n//     constructor(address payable _receiver) { recevier = _receiver;  }\r\n  \r\n//     address payable public recevier;\r\n\r\n//     function sendToReciver() external payable {\r\n//         require(msg.value > 0, \"You must send some ETH\");\r\n//         recevier.transfer(msg.value);\r\n//         emit Transfer(msg.sender, recevier, msg.value);\r\n//     }\r\n// }\r\n\r\n\r\n// Level 1 its still a  simple Transfer contract but with more security such as security via .call and recvieving directly ETH via recevi.\r\n// pragma solidity ^0.8.24;\r\n\r\n// contract Transfer {\r\n//     event Transfer(address indexed from, address indexed to, uint amount);\r\n\r\n//     address payable public recevier;\r\n\r\n//     constructor(address payable _receiver) {\r\n//         recevier = _receiver;\r\n//     }\r\n\r\n//     function sendToReciver() external payable {\r\n//         require(msg.value > 0, \"Send some ETH\");\r\n//         (bool success, ) = recevier.call{value: msg.value}(\"\");\r\n//         require(success, \"ETH transfer failed\");\r\n\r\n//         emit Transfer(msg.sender, recevier, msg.value);\r\n//     }\r\n\r\n//     receive() external payable {}\r\n// }\r\n\r\n// // Level 2 its still a  simple Transfer contract but with more security\r\n// // Such as using receive that is a method  that when someone send to contract only ETH without other req data runs.\r\n// // And fallback, that when user call method or functions from our contracts witch isnt on our contract.\r\n// pragma solidity ^0.8.24;\r\n\r\n// contract Transfer {\r\n//     event transfered(address indexed from, address indexed to, uint amount);\r\n\r\n//     address payable public recevier;\r\n\r\n//     constructor(address payable _receiver) {\r\n//         recevier = _receiver;\r\n//     }\r\n\r\n//     function sendToReciver() external payable {\r\n//         require(msg.value > 0, \"You must send some ETH\");\r\n\r\n//         (bool success, ) = recevier.call{value: msg.value}(\"\");\r\n//         require(success, \"ETH Transfer failed\");\r\n\r\n//         emit transfered(msg.sender, recevier, msg.value);\r\n//     }\r\n\r\n//     receive() external payable {\r\n//         (bool success, ) = recevier.call{value: msg.value}(\"\");\r\n//         require(success, \"Direct ETH transfer failed\");\r\n//         emit transfered(msg.sender, recevier, msg.value);\r\n//     }\r\n\r\n//     // If someone calls a non-existent function\r\n//     fallback() external payable {\r\n//         revert(\"Function does not exist\");\r\n//     }\r\n// }\r\n\r\n\r\n// Level 3 its still that simple contract, but the owner address is defined..\r\n// SPDX-License-Identifier: SEE LICENSE IN LICENSE\r\npragma solidity ^0.8.24;\r\n\r\ncontract Transfer {\r\n    event FundsTransferred(address indexed from, address indexed to, uint amount);\r\n\r\n    address payable public constant owner = payable(address(uint160(0x814EabE6C22a4ba2B7658702cd9cB56155DbD34f)));\r\n    constructor() { }\r\n\r\n    function sendToOwner() external payable {\r\n        require(msg.value > 0, \"Send some ETH\");\r\n\r\n        (bool success, ) = owner.call{value: msg.value}(\"\");\r\n        require(success, \"ETH Transfer failed\");\r\n\r\n        emit FundsTransferred(msg.sender, owner, msg.value);\r\n    }\r\n\r\n    receive() external payable {\r\n        (bool success, ) = owner.call{value: msg.value}(\"\");\r\n        require(success, \"Direct ETH transfer failed\");\r\n\r\n        emit FundsTransferred(msg.sender, owner, msg.value);\r\n    }\r\n\r\n    fallback() external payable {\r\n        revert(\"Function does not exist\");\r\n    }\r\n}\r\n",
  "sourcePath": "C:\\Users\\mopc\\Desktop\\Swap\\SendToken\\contracts\\SendingTokens.sol",
  "compiler": {
    "name": "solc",
    "version": "0.8.24+commit.e11b9ed9.Emscripten.clang"
  },
  "schemaVersion": "3.4.16",
  "updatedAt": "2025-04-24T14:54:52.016Z",
  "networkType": "ethereum",
  "devdoc": {
    "kind": "dev",
    "methods": {},
    "version": 1
  },
  "userdoc": {
    "kind": "user",
    "methods": {},
    "version": 1
  }
}